000000032010INF_BLOCO_G                   AT000190                      0000000000000026370001CAMINHONETE HYUNDAI,ESPECIE CARGA,COMBUSTIVEL A DIESEL,     0000240410010055110320213521030351873200016655001000024041170765918900000000016091674101082024SI0000000000033524CF87042190                    1935      132060001           
000000012010INF_BLOCO_G                   AT000190                      0000000000000026370001CAMINHONETE HYUNDAI,ESPECIE CARGA                           0000240410010055110320213521030351873200016655001000024041170765918900000000016091674101082024SI0000000000033524CF87042190                    1935      132060001           
000000013020INF_BLOCO_G                   AT000333                      0002000000000000020003ISTO É APENAS UM TESTE                                      000001235123002523052024216543215                                   00000000000023542023052024BA000000000000203512                            15        4563                
000000013020INF_BLOCO_G                   AT000333                      0002000000000000020003ISTO É APENAS UM TESTE                                      000001235123002523052024216543215                                   00000000000023542023052024BA000000000000203512                            15        4563                
000000013020INF_BLOCO_G                   AT000333                      0002000000000000020003ISTO É APENAS UM TESTE                                      000001235123002523052024216543215                                   00000000000023542023052024BA000000000000203512                            15        4563                
000000013020INF_BLOCO_G                   AT000333                      0002000000000000020003ISTO É APENAS UM TESTE                                      000001235123002523052024216543215                                   00000000000023542023052024BA000000000000203512                            15        4563                
000000013020INF_BLOCO_G                   AT000333                      0002000000000000020003ISTO É APENAS UM TESTE                                      000001235123002523052024216543215                                   00000000000023542023052024BA000000000000203512                            15        4563                
000000022010INF_BLOCO_G                   AT000190                      0000000000000026370001CAMINHONETE HYUNDAI,ESPECIE CARGA,COMBUSTIVEL A DIESEL,     0000240410010055110320213521030351873200016655001000024041170765918900000000016091674101082024SI0000000000033524CF87042190                    1935      132060001           
123456782010INF_BLOCO_G                   AT000190                      0000000000000026370001CAMINHONETE HYUNDAI,ESPECIE CARGA                           0000240410010055110320213521030351873200016655001000024041170765918900000000016091674101082024SI0000000000033524CF87042190                    1935      132060001           
000000013020INF_BLOCO_G                   AT000333                      0002000000000000020003ISTO É APENAS UM TESTE                                      000001235123002523052024216543215                                   00000000000023542023052024BA000000000000203512                            15        4563                
000000013020INF_BLOCO_G                   AT000333                      0002000000000000020003ISTO É APENAS UM TESTE                                      000001235123002523052024216543215                                   00000000000023542023052024BA000000000000203512                            15        4563                
000000013020INF_BLOCO_G                   AT000333                      0002000000000000020003ISTO É APENAS UM TESTE                                      000001235123002523052024216543215                                   00000000000023542023052024BA000000000000203512                            15        4563                
000000013020INF_BLOCO_G                   AT000333                      0002000000000000020003ISTO É APENAS UM TESTE                                      000001235123002523052024216543215                                   00000000000023542023052024BA000000000000203512                            15        4563                
000000013020INF_BLOCO_G                   AT000333                      0002000000000000020003ISTO É APENAS UM TESTE                                      000001235123002523052024216543215                                   00000000000023542023052024BA000000000000203512                            15        4563                
000000013020INF_BLOCO_G                   AT000333                      0002000000000000020003ISTO É APENAS UM TESTE                                      000001235123002523052024216543215                                   00000000000023542023052024BA000000000000203512                            15        4563                
123456782010INF_BLOCO_G                   AT000190                      0000000000000026370001CAMINHONETE HYUNDAI,ESPECIE CARGA                           0000240410010055110320213521030351873200016655001000024041170765918900000000016091674101082024SI0000000000033524CF87042190                    1935      132060001           
000000013020INF_BLOCO_G                   AT000333                      0002000000000000020003ISTO É APENAS UM TESTE                                      000001235123002523052024216543215                                   00000000000023542023052024BA000000000000203512                            15        4563                
000000013020INF_BLOCO_G                   AT000333                      0002000000000000020003ISTO É APENAS UM TESTE                                      000001235123002523052024216543215                                   00000000000023542023052024BA000000000000203512                            15        4563                
